:100000000C942A010C9452010C9452010C94B715D3
:100010000C94B7150C94B7150C9452010C94520122
:100020000C9452010C9452010C9452010C94520104
:100030000C9452010C9452010C9452010C945201F4
:100040000C94621A0C9452010C9481130C945B135F
:100050000C9452010C9452010C9452010C945201D4
:100060000C9452010C945201572069206C2073208B
:100070007A20A820AF20BC20C920D520D520D520AB
:10008000D520D520D520D520D520D520D520D520C8
:10009000D520D520D520D520D520D520D520D520B8
:1000A000D520D520D520D5205720642069206C206C
:1000B00073207A2081208E209B204572726F723AC5
:1000C00020566572696669717565207461726A652A
:1000D00074612053440043533A454E440044463A29
:1000E0004E4F2D4558495354450044463A455849CA
:1000F0005354450043533A454E440044463A455212
:10010000524F520043533A454E440044463A4E4FF4
:100110002D4558495354450044463A454C494D49AC
:100120004E41444F0044463A4552524F52004353C9
:100130003A4F4B004572726F723A204E6F207365D2
:1001400020707565646520616272697220656C203B
:100150006172636869766F206465206461746F738F
:1001600020646174612E747874002C002C003000BF
:100170003A003A0030003A003A0030002C002F00DC
:100180002F002C002C002C002D002D002C002C000A
:100190002C002C002C002C002C002C002C002C00FF
:1001A0004572726F723A204E6F20736520646574D9
:1001B0006563746120656C207265636570746F722D
:1001C00020475053007C3C3E5E2B3D3F2F5B5D3B08
:1001D0002C2A225C000000000023002600290000D9
:1001E000000000250028002B00040404040404047B
:1001F00004020202020202030303030303010204D6
:100200000810204080010204081020010204081098
:1002100020005EBCE2613FDD83C29C7E20A3FD1F07
:1002200041009D23BE46DB65F88C11AF32CA57E909
:100230007400000000240027002A000000000800CD
:10024000020100000304070000000000000000009D
:10025000CE26B22611241FBECFEFD8E0DEBFCDBF21
:1002600011E0A0E0B1E0E8E2FAE502C005900D92ED
:10027000A63AB107D9F725E0A6EAB1E001C01D9280
:10028000AC3FB207E1F711E0C9E2D1E004C0219729
:10029000FE010E943D29C832D107C9F70E94AC1A5D
:1002A0000C94072D0C940000DC015996ED91FC9103
:1002B0005A973097B9F083899489A589B689428580
:1002C000538564857585841B950BA60BB70B81152B
:1002D00020E89207A105B10538F08FEF9FE7A0E075
:1002E000B0E0089580E090E00895CF93DF931F92EF
:1002F000CDB7DEB76983DC01ED91FC910280F3811B
:10030000E02D41E050E0BE016F5F7F4F09950F90F7
:10031000DF91CF910895089580E090E008951F93B4
:10032000CF93DF93EC0180E2689FF0011124E85441
:10033000FE4F9385917129F0842F827411F080E033
:100340004FC0142F6A8B8091180190911901A091D0
:100350001A01B0911B018E879F87A88BB98B4489A6
:10036000558960E070E0BA0155274427828D938D4E
:10037000A0E0B0E0482B592B6A2B7B2B4F8B588F7A
:10038000698F7A8F8385887151F4848D958DA68DC0
:10039000B78D8B8B9C8BAD8BBE8B81E00CC080317D
:1003A00071F69E012D5E3F4F8B8D9C8D0E94780DC6
:1003B000882329F284E08D83812F8F708C831E82A5
:1003C0001F82188619861A861B861C861D8616FFB4
:1003D00006C0CE01DF91CF911F910C94280F81E0D0
:1003E000DF91CF911F9108953F924F925F926F924C
:1003F0007F928F929F92AF92BF92CF92DF92EF92B5
:10040000FF920F931F93CF93DF93CDB7DEB72C9757
:100410000FB6F894DEBF0FBECDBF5C01DC015B966A
:100420008D909C905C971696CD90DD90ED90FC9011
:100430001997C114D104E104F10439F0BFEFCB1ACC
:10044000DB0AEB0AFB0A312C07C0F401C080D18023
:10045000E280F38033243394F40181859285A3856F
:10046000B4859C01AD012F5F3F4F4F4F5F4F2987F0
:100470003A874B875C87260137011D821E821F82C7
:100480001886F40181859285A385B4852D813E81EE
:100490004F815885281739074A075B0708F063C062
:1004A00089859A85AB85BC858C159D05AE05BF05F4
:1004B00050F482E0C82ED12CE12CF12C92E0492E90
:1004C000512C612C712C9E012F5F3F4FB701A6016B
:1004D000C4010E945617882309F445C089819A8176
:1004E000AB81BC81892B8A2B8B2B41F026013701F4
:1004F0009FEF491A590A690A790A05C0C414D5043C
:10050000E604F70491F02D813E814F8158852F5FDD
:100510003F4F4F4F5F4F2D833E834F8358873FEFB1
:10052000C31AD30AE30AF30AACCF0FEF1FEF2FEF82
:100530003FE0B301A201C4010E94B516882399F0DF
:10054000D50116964D915D916D917C91199741154C
:1005500051056105710549F093018201C4010E94B2
:10056000B516811102C080E02AC0D50116964D92C1
:100570005D926D927C921997332051F0D301C201A4
:100580000196A11DB11DF40180839183A283B383E1
:10059000F5018789908DA18DB28D892B8A2B8B2BAC
:1005A00069F4D50157964D925D926D927C925A975F
:1005B00014968C911497806814968C9381E02C96F5
:1005C0000FB6F894DEBF0FBECDBFDF91CF911F9164
:1005D0000F91FF90EF90DF90CF90BF90AF909F90E2
:1005E0008F907F906F905F904F903F900895CF9342
:1005F000DF93EC018D81882319F18C8187FF1CC06A
:10060000CE010E940F0FFC01892BD1F08D81823029
:1006100040F48B899C89AD89BE89848F958FA68F84
:10062000B78F8F89988DA98DBA8D938F828FB58B57
:10063000A48B8C818F778C83DF91CF910C943116B2
:1006400080E0DF91CF910895FC01818D928D00971C
:1006500011F00C94F70208958F929F92AF92BF927F
:10066000CF92DF92EF92FF920F931F93CF93DF937E
:10067000EC018D81811102C080E078C00B891C895A
:100680002D893E890417150726073707A8F36A0145
:100690007B01823029F4CA86DB86EC86FD860DC09C
:1006A000C114D104E104F10451F41E821F821886A2
:1006B00019861A861B861C861D8681E057C08A848F
:1006C0009B84AC84BD84EB8DFC8D258530E0275F59
:1006D0003F4FB501A4014150510961097109022E32
:1006E00004C076956795579547950A94D2F7D70138
:1006F000C6010197A109B10904C0B695A7959795C0
:1007000087952A95D2F784179507A607B70720F093
:1007100089288A288B2871F44F89588D698D7A8DA4
:100720004E835F83688779874C015D018E010A5F84
:100730001F4F16C0841B950BA60BB70BF5CF4E8130
:100740005F816885798598018B8D9C8D0E945617F5
:1007500091E0891A9108A108B108882309F48CCF87
:1007600081149104A104B10451F795CFDF91CF9189
:100770001F910F91FF90EF90DF90CF90BF90AF90BF
:100780009F908F900895CF93DF93EC010E94F70222
:10079000882311F01D8281E0DF91CF91089561E0FF
:1007A000FC0184810C949A198091B3018F3F39F434
:1007B0008EBD00000DB407FEFDCF8EB50895F894F0
:1007C000E091AE01F091AF0190818091AD01892B54
:1007D000808328E080E0E091B101F091B2013081A6
:1007E0009091B001392B3083880FA091AB01B0916B
:1007F000AC014C913091AA01342309F08160308121
:1008000090959323908300000000215021F7789465
:1008100008950F931F93CF93DF93EB010E94561A15
:100820008B010E94D4038F3F49F00E94561A601B2F
:10083000710B6C177D07A8F380E001C081E0DF91A8
:10084000CF911F910F910895CF93DF93EC018E818B
:10085000882389F08F8198859C012F5F3F4F3887CF
:100860002F838230924018F40E94D403F3CFCE013C
:100870000E94CF031E82DF91CF9108959091B30122
:100880009F3F39F48EBD00000DB407FEFDCF8EB53D
:100890000895F89428E0E091B101F091B20130811F
:1008A0004091B001942F909539233083A091AE01EF
:1008B000B091AF019091AD013C9187FF02C0932BA5
:1008C00002C0909593239C939081942B9083880FE2
:1008D000215009F70000000000000000E091B10184
:1008E000F091B20190818091B0018095892380833D
:1008F000789408958F929F92AF92BF92FF920F9338
:100900001F93CF93DF93EC01F62E49015A010E9409
:10091000240460E08C810E949A196CE271E0CE019F
:100920000E9409048F2D80640E943E0408E110E0BB
:10093000D501C401002E04C0B695A795979587955B
:100940000A94D2F70E943E0408501109083F8FEF25
:10095000180771F7FF2029F088E0F81204C087E833
:1009600003C085E901C08FEF0E943E0410E00E94A1
:10097000D4038A8787FF04C01F3F11F01F5FF7CFA2
:10098000DF91CF911F910F91FF90BF90AF909F90FB
:100990008F900895AF92BF92CF92DF92EF92FF9225
:1009A0000F931F93CF93DF93EC016901C801820F6E
:1009B000931F8130924008F070C08E81882371F0BF
:1009C00088819981AA81BB8184179507A607B707FB
:1009D00029F48F819885C816D906B0F548835983C4
:1009E0006A837B838B85833039F089E0440F551F00
:1009F000661F771F8A95D1F79A01AB0161E1CE019D
:100A00000E947A04882319F083E08D8346C00E94F7
:100A1000561A5B010E94D4038A878F3F49F40E94D3
:100A2000561A6A197B096D327140A0F38FE003C03A
:100A30008E3F31F08DE08D83CE010E94CF032DC01B
:100A400018861F8281E08E838F8198858C159D0585
:100A500040F40E94D4038F819885019698878F83F4
:100A6000F3CF6701E00EF11EEC14FD0431F00E949B
:100A7000D403F60181936F01F7CF8F819885080F1A
:100A8000191F18870F838985882319F001151240D3
:100A900048F0CE010E94240405C0CE010E94CF037D
:100AA00080E001C081E0DF91CF911F910F91FF9015
:100AB000EF90DF90CF90BF90AF9008954F925F92EC
:100AC0006F927F92AF92BF92CF92DF92EF92FF929E
:100AD0000F931F93CF93DF931F92CDB7DEB7FC0127
:100AE0002581222309F4C1C0848180FFBEC083898F
:100AF0009489A589B6894284538464847584841555
:100B00009505A605B70509F4B0C06F015201F1E0E3
:100B1000BF22D6015B968D919C915C97B301A20197
:100B200039E076956795579547953A95D1F72230F4
:100B300071F4FC01828D938DA48DB58D8A019B018A
:100B4000080F191F2A1F3B1FC901B8014AC0DC0149
:100B500014961C9111501423A114B104F9F411112D
:100B60001DC045284628472851F4F6018789908DF5
:100B7000A18DB28D86839783A087B1870FC0D601E0
:100B800016964D915D916D917C91199796012A5F12
:100B90003F4F0E945617882309F467C0F601238D42
:100BA000348D86819781A085B1850297A109B1090D
:100BB000AC01BD01F901058404C0440F551F661F37
:100BC000771F0A94D2F786859785A089B189840F0B
:100BD000951FA61FB71FBC01CD01610F711D811D9F
:100BE000911DD60114962C9126FF0DC0409018013E
:100BF0005090190160901A0170901B01461657061B
:100C00006806790699F440E00E946C16882369F121
:100C1000F501E854FE4FDE0111969F012F5F3F4F13
:100C20002E173F0799F081918D93FACFFE013196EF
:100C30007F0101E010E09501AB01BC018091B80398
:100C40009091B9030E94CA04882379F0F601828545
:100C50009385A485B5850196A11DB11D82879387D3
:100C6000A487B587898190E002C08FEF9FEF0F9036
:100C7000DF91CF911F910F91FF90EF90DF90CF9078
:100C8000BF90AF907F906F905F904F9008952F929C
:100C90003F924F925F926F927F928F929F92AF920C
:100CA000BF92CF92DF92EF92FF920F931F93CF9359
:100CB000DF93CDB7DEB72C970FB6F894DEBF0FBE2B
:100CC000CDBF7C01DC0115962C9021106DC1FE0179
:100CD0003196CE010C966F0130E231938E179F074B
:100CE000E1F7DA0130E087E09D91992331F19E32FE
:100CF00031F48A3009F45DC138E08AE0F5CFE5ECE3
:100D0000F1E04491442321F031969413FACF51C17C
:100D1000831708F44EC14FED490F4E3508F049C115
:100D200041E0430FF601E30FF11D3FE9390F3A317E
:100D300008F490529083342FD7CF8981803209F400
:100D400038C12C878B01FB01838D948DD7015C9674
:100D50009C938E935B97168217821086118612865B
:100D6000138614861586B12CF80182859385A48597
:100D7000B585438954896589768984179507A607BF
:100D8000B70708F05BC025E0B695A79597958795BE
:100D90002A95D1F7F82FFF70AF2ED80115968C91B8
:100DA000823008F406C1C8010E945E0597FD01C1AA
:100DB000F80182859385A485B5854F96A11DB11D47
:100DC00082879387A487B587F0E2AF9EB001112494
:100DD00068547E4F6115710509F4EBC0DB018C91FD
:100DE000882319F0853EC1F4E1C0B1100EC0F701AF
:100DF000A28A8091180190911901A0911A01B091D5
:100E00001B0186879787A08BB18BDB018C91882390
:100E100099F0BB24B394A8CF4BE050E0C6010E94E8
:100E2000DB2C892B09F0A0CF8C858073803309F4EB
:100E3000C0C04C856A2DB3C0BB24B3948C8582712D
:100E4000823109F0B6C0BB2039F0C7010E940F0FF4
:100E5000009709F078C0ADC0F8018581823009F4AF
:100E6000A8C0C8010E94F401882309F4A2C0D801D7
:100E70005B96ED91FC915C9716968D909D90AD9050
:100E8000BC901997B2E08B1A9108A108B1080584AB
:100E900004C0880C991CAA1CBB1C0A94D2F7868536
:100EA0009785A089B189880E991EAA1EBB1E348021
:100EB000E1E08E1A9108A108B108332009F124015C
:100EC0003501430C511C611C711C0E943116882392
:100ED00009F46FC0E8EBF1E0119223E0E83BF20780
:100EE000D9F7409218015092190160921A0170923C
:100EF0001B018091AA0581608093AA053A94DDCFF9
:100F0000D8015B96ED91FC915C9780E092E0A0E0C7
:100F1000B0E0058404C0880F991FAA1FBB1F0A9464
:100F2000D2F7F8014389548965897689840F951F22
:100F3000A61FB71F838B948BA58BB68BD7015296B8
:100F40001C9288EB91E020E2FC0111922A95E9F7CE
:100F50002BE0F601DC0101900D922A95E1F721E2E8
:100F600038E2DC0151963C932E93509740E058E0D4
:100F70001F965C934E931E9753963C932E935297D5
:100F800059963C932E93589757965C934E93569749
:100F90000E943116882369F04C85F7016289C701E8
:100FA0000E948F01282E05C0212C03C0B11031CF23
:100FB0001ECF822D2C960FB6F894DEBF0FBECDBF8C
:100FC000DF91CF911F910F91FF90EF90DF90CF9025
:100FD000BF90AF909F908F907F906F905F904F9059
:100FE0003F902F900895CF93DF93CDB7DEB76D97E5
:100FF0000FB6F894DEBF0FBECDBF442351F1AB0155
:10100000BC011C821B828EE391E09A8389831E823D
:1010100022E0CE0101960E944706811102C090E0B5
:1010200013C0CE0101960E94280F8823C1F3CE0180
:1010300001960E940F0F009791F325EEFC0120838B
:101040001E820E943116982F81E0911103C080E02A
:1010500001C081E06D960FB6F894DEBF0FBECDBF24
:10106000DF91CF9108951F93CF93DF93CDB7DEB774
:101070006D970FB6F894DEBF0FBECDBFAB011C82DB
:101080001B822EE331E03A8329831E8221E0BC01DA
:10109000CE0101960E94470611E0811102C010E0C6
:1010A00004C0CE0101960E94C303812F6D960FB636
:1010B000F894DEBF0FBECDBFDF91CF911F91089591
:1010C000FC01818D928D009711F00C945E058FEFDD
:1010D0009FEF08950F931F93CF93DF93FC01818DB2
:1010E000928D0097B9F0EF010E945E058C010F3FD1
:1010F0008FEF180791F0898D9A8DFC0142855385F9
:101100006485758541505109610971090E942C035C
:10111000C80105C080E090E002C08FEF9FEFDF9133
:10112000CF911F910F910895CF92DF92EF92FF928E
:101130000F931F93CF93DF93EC0179014115510574
:101140006105710511F482E165C08B85833039F04A
:10115000E9E0440F551F661F771FEA95D1F79A0102
:10116000AB0168E1CE010E947A04882311F084E08B
:1011700051C08C8597013E5F6901882321F1F701F9
:1011800000E010E0819190E081279C0144E03595DA
:1011900027954A95E1F782279327102F00270827E4
:1011A00019279C01322F22273295307F02271327DF
:1011B00075E0880F991F7A95E1F708271927CE1651
:1011C000DF0601F702C00FEF1FEF8EEF0E943E0413
:1011D000F70181917F010E943E04CE14DF04C1F724
:1011E000812F0E943E04802F0E943E040E94D4035F
:1011F0008A878F71853031F081E18D83CE010E9425
:10120000CF0309C068E572E0CE010E940904811194
:1012100007C085E18D83CE010E94CF0380E013C01B
:1012200020E030E0A9016DE0CE010E947A04811136
:1012300004C00E94D403882311F084E1EBCFCE01D7
:101240000E94CF0381E0DF91CF911F910F91FF901A
:10125000EF90DF90CF9008952F923F924F925F9240
:101260006F927F928F929F92AF92BF92CF92DF92B6
:10127000EF92FF920F931F93CF93DF9300D000D094
:10128000CDB7DEB78C015B011A01DC0115968C919C
:1012900015978130C9F414968C9181FF15C082FF97
:1012A0001DC0F801438954896589768982859385B3
:1012B000A485B58584179507A607B70779F0C801F7
:1012C0000E942C0381110AC081E090E0D80113969E
:1012D0009C938E93129780E090E036C1610183C0A9
:1012E0005B968D919C915C97FC0174802FEF270D8C
:1012F0002A013B0139E076946794579447943A95D4
:10130000D1F7722E74207A01F1E0FF22772009F4E0
:1013100076C080E092E08E199F0946018C159D05EC
:1013200008F44C01D8015B962D913C915C97169680
:101330008D919D910D90BC91A02D0297A109B109AD
:10134000F901058404C0880F991FAA1FBB1F0A94C6
:10135000D2F74685578560897189840F951FA61F2E
:10136000B71F9C01AD01270D311D411D511D2901E4
:101370003A01811432E0930609F088C08091180187
:1013800090911901A0911A01B0911B0148165906BC
:101390006A067B0659F48FEF9FEFDC0180931801FA
:1013A00090931901A0931A01B0931B019501B30109
:1013B000A2018091B8039091B9030E9494088823F8
:1013C00009F482CF9EEFB91AC818D908F8018285AE
:1013D0009385A485B585880D991DA11DB11D8287B2
:1013E0009387A487B587D8011A964D915D916D9129
:1013F0007C911D97C114D10409F072CF87C0E1140C
:10140000F10409F086CF16964D915D916D917C9116
:101410001997411551056105710559F457968D913C
:101420009D910D90BC91A02D0097A105B10541F5AE
:1014300021C09E012F5F3F4F0E945617882309F459
:101440004BCF89819A81AB81BC81F801238D348D8A
:10145000F9012789203129F048EF5FEF6FEF7FE036
:1014600004C048EF5FEF60E070E084179507A607BF
:10147000B70730F0C8010E94F40181114ACF24CF90
:10148000F80186839783A087B18743CFE114F104E5
:1014900029F5D8011A964D915D916D917C911D971A
:1014A00053968D919D910D90BC91A02D4817590791
:1014B0006A077B0798F00E943116882309F404CF4D
:1014C000409218015092190160921A0170921B010A
:1014D0008091AA0581608093AA0508C041E0C301FC
:1014E000B2010E946C16882309F4EECED501F701F3
:1014F000E854FE4F9F01280D391D2E173F0719F0A4
:101500008D918193FACFA80CB91C5ECFF801838925
:101510009489A589B68984179507A607B70738F473
:10152000438B548B658B768B848180688483F80130
:10153000848183FD02C0C10107C0C8010E94F70277
:10154000882309F4C1CEF7CF0F900F900F900F9022
:10155000DF91CF911F910F91FF90EF90DF90CF908F
:10156000BF90AF909F908F907F906F905F904F90C3
:101570003F902F900895CF93DF93EC01898D9A8D42
:10158000009739F481E090E09B838A8380E090E0CB
:101590000BC0FC01138212820E942C09E98DFA8D86
:1015A00022813381232B71F7DF91CF9108959CB570
:1015B0009C7F282F2370922B9CBD2DB582FB9927F1
:1015C00090F9822F8E7F892B8DBD0895FC01DB0160
:1015D00012968D919C911397938382838EE391E071
:1015E0009183808314968C911497848315968C91A3
:1015F0001597858316964D915D916D917C91199704
:1016000046835783608771871A964D915D916D91DE
:101610007C911D9742875387648775871E964D91ED
:101620005D916D917C91519746875787608B718B47
:1016300052968C915297828B53964D915D916D91FC
:101640007C915697438B548B658B768B57964D9137
:101650005D916D917C915A97478B508F618F728FFE
:101660005B968D919C915C97948F838F0895EF92F8
:10167000FF920F931F93CF93DF93EC017B018A01BD
:101680001B821A8288EE93E0A0E0B0E08C839D83F9
:10169000AE83BF838AE491E0998388838DE190E0F3
:1016A0000E94B52B9A8F898F009779F02DE1F70171
:1016B000DC0101900D922A95E1F74CE050E0B80171
:1016C000CE010C960E94F82C188EDF91CF911F91BD
:1016D0000F91FF90EF900895CF93DF93BC018AEBB9
:1016E00093E00E94FD11EC0166E771E08AEB93E064
:1016F0000E9421128C0F9D1FDF91CF9108958F9230
:101700009F92AF92BF92CF92DF92EF92FF920F9390
:101710001F93CF93DF938C01EB018091A7049091ED
:10172000A8040E948015882309F43DC0B801809167
:10173000A7049091A8040E94611540E06EEB80918F
:10174000A7049091A8040E942D158E015E0189E0E6
:10175000A80EB11C8090A7049090A80488E0C82E21
:10176000D12CF12CEE24E394C4010E94DA148111EF
:10177000FE28EE0CE1E0CE1AD108B1F7F801F192A3
:101780008F01EA15FB0531F78091A7049091A80419
:101790000E948015813039F468E0CE010E94C214A5
:1017A00091E02885281390E0892FDF91CF911F9138
:1017B0000F91FF90EF90DF90CF90BF90AF909F90F0
:1017C0008F900895CF93DF93CDB7DEB729970FB6EB
:1017D000F894DEBF0FBECDBFFC0120812031D1F0D7
:1017E000BE016F5F7F4F0E947F0B882389F08D8140
:1017F0008F3361F020F48F3159F489E00CC08F35BC
:1018000019F08F3739F004C08BE005C08AE003C0BF
:1018100080E001C08CE029960FB6F894DEBF0FBEC1
:10182000CDBFDF91CF910895BF92CF92DF92EF921B
:10183000FF920F931F93CF93DF93EC016B018D8584
:10184000811105C0CE010E948015811105C01B8643
:101850001D861C8680E060C040E060EFCE010E94E3
:101860002D1501E0E12CB12C11E0CE010E94DA141B
:10187000F82ECE010E94DA1491E0F91203C08130F3
:10188000B1F434C02E2D30E0F8121BC08B85181730
:1018900038F4FE01E20FF31F8381802341F402C07C
:1018A000811729F0F12C193058F41C8709C0FE016A
:1018B000EE0DF11D8381802B8383FF24F39409C0F7
:1018C000B12EFE01E20FF31F9381802F80958923B3
:1018D00083836F2DCE010E94FE141F5F000F11F451
:1018E000E39401E087E08E1508F0BFCF113408F4CF
:1018F000AECFBB86B11002C081E08D878B8188237B
:1019000009F4A5CFDE011396F6012B968D918193F4
:10191000CA17DB07D9F781E0DF91CF911F910F91B3
:10192000FF90EF90DF90CF90BF900895DF92EF92FD
:10193000FF920F931F93CF93DF93CDB7DEB76197DD
:101940000FB6F894DEBF0FBECDBF8C010E94E20B34
:101950008C3019F4EE24E394BCC0BE016F5F7F4F5E
:10196000C8010E947F0BE82E882309F4B2C0F80159
:101970008081803179F38FE78D838091A7049091E6
:10198000A8040E948015B8018091A7049091A80432
:101990000E94611540E06EE48091A7049091A80434
:1019A0000E942D1540E06B818091A7049091A804BE
:1019B0000E942D1540E06C818091A7049091A804AD
:1019C0000E942D15F8018081803141F040E06D8149
:1019D0008091A7049091A8040E942D158091A704DE
:1019E0009091A8040E948015B8018091A70490915D
:1019F000A8040E9461154091A10468E48091A704A5
:101A00009091A8040E942D1564E170E080E090E0C0
:101A10000E941C1A8091A104882331F06AE070E0D2
:101A200080E090E00E941C1A8091A7049091A80485
:101A30000E9480158091A2048D3020F48CE0809368
:101A4000A20488CF8CE08093A20400E010E0809193
:101A5000A50490E008171907E4F5D02EE091A7043B
:101A6000F091A804138615861486DF011B96339621
:101A70001E92AE17BF07E1F7F12CBE01665F7F4FE4
:101A80008091A7049091A8040E94140C882369F007
:101A9000DF1008C067E0CE010A960E94C21499893F
:101AA000891719F0F394DF1440F7F090A204CE01E7
:101AB0000A960E94E20B8F1518F48091A20404C0CC
:101AC000CE010A960E94E20B8093A2040F5F1F4F83
:101AD000BECF8E2D61960FB6F894DEBF0FBECDBF80
:101AE000DF91CF911F910F91FF90EF90DF900895BC
:101AF0004F925F926F927F92AF92BF92CF92DF929E
:101B0000EF92FF920F931F93CF93DF9300D000D0FB
:101B1000CDB7DEB78C0149835A836B837C8359012F
:101B2000C12CD12C7601412C82E0582E612C712CD5
:101B300049815A816B817C819E012F5F3F4FC80193
:101B40000E945617882351F1D301C201F801058480
:101B500004C0880F991FAA1FBB1F0A94D2F7C80E92
:101B6000D91EEA1EFB1E49815A816B817C818789BF
:101B7000803129F088EF9FEFAFEFBFE004C088EF1E
:101B80009FEFA0E0B0E0481759076A077B0780F293
:101B9000F501C082D182E282F38281E00F900F9042
:101BA0000F900F90DF91CF911F910F91FF90EF90C9
:101BB000DF90CF90BF90AF907F906F905F904F90ED
:101BC00008958F929F92AF92BF92CF92DF92EF9241
:101BD000FF92CF93DF93C82F87E594E09093B903EA
:101BE0008093B803CC2369F1C53010F080E00CC1BC
:101BF00040E060E070E0CB010E946C168823B1F3F6
:101C000020E1C29FC001112488559E4FFC01E2547F
:101C1000FE4F20812F7751F73C96408151816281A0
:101C20007381443651056105710500F33497C08016
:101C3000D180E280F380C114D104E104F10421F4E5
:101C4000D5CFC12CD12C760140E0C701B6010E944E
:101C50006C16882359F28091C3019091C4018115BB
:101C6000924021F6A091C801AA2309F4BFCF609148
:101C7000C6017091C7016115710509F4B7CF2091B4
:101C8000C501222309F4B2CFA093760420936804FF
:101C900080E030E041E050E0C82FFA01082E02C099
:101CA000EE0FFF1F0A94E2F72E173F0739F08F5F00
:101CB000C83091F789E08093710498CF80937104C4
:101CC0002091CE013091CF012115310519F040E06E
:101CD00050E008C02091DC013091DD014091DE012F
:101CE0005091DF012093690430936A0440936B04A0
:101CF00050936C0446015701860E971EA11CB11C1F
:101D00008092770490927804A0927904B0927A0439
:101D1000E091C901F091CA01F0937D04E0937C0445
:101D2000B0E00E944329860E971EA81EB91E80921D
:101D30007E0490927F04A0928004B092810485E09A
:101D4000EE0FFF1F8A95E1F7E150FE4FEF2FFF27BF
:101D5000E6958E0E9F1EA11CB11C8092720490927B
:101D60007304A0927404B09275042091CB01309159
:101D7000CC012115310521F0A90160E070E008C017
:101D80004091D8015091D9016091DA017091DB0145
:101D9000D701C60188199909AA09BB09840F951FA3
:101DA000A61FB71F04C0B695A79597958795CA95A6
:101DB000D2F780936D0490936E04A0936F04B09358
:101DC0007004853F2FE09207A105B10510F48CE067
:101DD00018C0853F9F4FA105B10510F480E111C0E7
:101DE0008091E4019091E501A091E601B091E701B5
:101DF00080937E0490937F04A0938004B093810429
:101E000080E280937B0481E0DF91CF91FF90EF909F
:101E1000DF90CF90BF90AF909F908F900895CF9319
:101E2000DF93EC016E857F858889998941E00E9466
:101E30006C16882341F08A8920E2829FC001112418
:101E400088549E4F02C080E090E0DF91CF910895CA
:101E50008F929F92AF92BF92CF92DF92EF92FF92BA
:101E60000F931F93CF93DF9300D000D0CDB7DEB791
:101E7000FC018581813079F5948191FF2CC04389E3
:101E8000548965897689452B462B472B09F45CC01C
:101E90007F0140E050E0BA01CF010E942C0388236B
:101EA000D1F0F7018788908CA18CB28CC38CD48C34
:101EB00082E090E0A0E0B0E0F60180839183A2830D
:101EC000B3839E012F5F3F4FB501A401C6010E945D
:101ED0005617811102C080E037C000E010E0980181
:101EE000B501A401C6010E94B5168823A1F389801B
:101EF0009A80AB80BC80F6018789803129F088EF19
:101F00009FEFAFEFBFE004C088EF9FEFA0E0B0E02D
:101F100088169906AA06BB06A0F2F701178A108E4A
:101F2000118E128E138A148A158A168A848180680B
:101F30008483C7010E94F702882369F240E050E0E1
:101F4000BA01C7010E942C030F900F900F900F90C1
:101F5000DF91CF911F910F91FF90EF90DF90CF9085
:101F6000BF90AF909F908F900895FF920F931F9313
:101F7000CF93DF93CDB7DEB7C755D1090FB6F8942D
:101F8000DEBF0FBECDBF8C01F62E62E874E0CE013D
:101F900001960E94E60ABE016F5F7F4FCE01CB968D
:101FA0000E94E60A19A218A28EE391E09F8F8E8FFD
:101FB0001BA221968FAD2197811113C0F8011382C6
:101FC000128288EE93E0A0E0B0E084839583A6833C
:101FD000B7838AE491E091838083128E118E1486F8
:101FE00036C082502F2D49E751E0823048F462E834
:101FF00074E0CE014E960E94470681110EC0DECFDE
:10200000BE01655C7F4FCE014E960E944706882335
:10201000A9F2CE01CB960E94C3038F2D867041F0AA
:1020200049A95AA96BA97CA9CE014E960E942C03FE
:10203000BE01625E7F4FCE0101960E94E60A49E72B
:1020400051E0BE016F5F7F4FC8010E94370BC8018E
:10205000C95ADF4F0FB6F894DEBF0FBECDBFDF9178
:10206000CF911F910F91FF900895CF92DF92EF9241
:10207000FF920F931F93CF93DF936C017A018B0133
:10208000C0E0D0E0CE15DF0581F0D8016D918D0163
:10209000D601ED91FC910190F081E02DC6010995EA
:1020A000892B11F02196EECF7E01C701DF91CF91F0
:1020B0001F910F91FF90EF90DF90CF900895FC015A
:1020C000538D448D252F30E0842F90E0821B930B9D
:1020D000541710F0CF96089501970895FC01918D43
:1020E000828D981761F0828DDF01A80FB11D5D967A
:1020F0008C91928D9F5F9F73928F90E008958FEFE8
:102100009FEF0895FC01918D828D981731F0828D9B
:10211000E80FF11D858D90E008958FEF9FEF0895F2
:10212000FC01918D228D892F90E0805C9F4F821B56
:1021300091098F73992708958AEB93E00E9490107C
:1021400021E0892B09F420E0822F0895FC01848D81
:10215000DF01A80FB11DA35ABF4F2C91848D90E0D1
:1021600001968F739927848FA689B7892C93A089AC
:10217000B1898C91837080648C93938D848D981336
:1021800006C00288F389E02D80818F7D80830895C9
:10219000EF92FF920F931F93CF93DF93EC0181E0B7
:1021A000888F9B8D8C8D981305C0E889F989808173
:1021B00085FD26C0F62E0B8D10E00F5F1F4F0F73AD
:1021C0001127E02E8C8DE8120CC00FB607FCFACF59
:1021D000E889F989808185FFF5CFCE010E94A6109C
:1021E000F1CF8B8DFE01E80FF11DE35AFF4FF08216
:1021F0009FB7F8940B8FEA89FB89808180620AC0BF
:102200009FB7F894EE89FF896083E889F989808116
:102210008370806480839FBF81E090E0DF91CF91E5
:102220001F910F91FF90EF900895CF93DF93EC01F2
:10223000888D8823C9F0EA89FB89808185FD05C0E6
:10224000A889B9898C9186FD0FC00FB607FCF5CF20
:10225000808185FFF2CFA889B9898C9185FFEDCF68
:10226000CE010E94A610E7CFDF91CF91089580E0C4
:1022700090E0892B29F00E949C1081110C940000A1
:1022800008952091A8013091A9012817390771F408
:102290009091A6018091A701981741F0E091A601C5
:1022A000F0E0E155FA4F808190E008958FEF9FEFC5
:1022B000089508951F93CF93DF93DC015C968D9171
:1022C0009C915D97009739F421E030E013963C93A0
:1022D0002E9312973BC05196ED91FC9152975096D8
:1022E0002C915097322F30951FB75E964C915E9788
:1022F000742F727041FD6095F8944081772311F03E
:10230000422B01C043234083EC012197F1F748E0C1
:10231000508160FF02C0522B01C053235083EC0157
:102320002197F1F76695415099F78081772319F04D
:102330008323808302C0282B20831FBF5C968D914E
:102340009C915D970197F1F781E090E0DF91CF914B
:102350001F9108952091A8013091A90128173907EC
:1023600071F48091A7012091A60190E0805C9F4FBD
:10237000821B910960E470E00E940729089580E0C3
:1023800090E008952091A8013091A90128173907FC
:10239000B9F49091A6018091A701981789F0E09176
:1023A000A601F0E0E155FA4F80812091A60130E0CE
:1023B0002F5F3F4F2F7333272093A60190E008959E
:1023C0008FEF9FEF08950E94D62CCF93DF931F923B
:1023D000CDB7DEB7698341E050E0BE016F5F7F4F4C
:1023E0000E942C090F90DF91CF910895DC01ED91AF
:1023F000FC910190F081E02D0994EF92FF920F93F0
:102400001F93CF93DF938C017B01C0E0D0E0F701F5
:10241000EC0FFD1F6491662361F0D801ED91FC91F2
:102420000190F081E02DC8010995892B11F02196CA
:10243000EECFCE01DF91CF911F910F91FF90EF90E2
:1024400008956115710579F0FB0101900020E9F70D
:102450003197AF01461B570BDC01ED91FC910280D7
:10246000F381E02D099480E090E008958F929F928F
:10247000AF92BF92EF92FF920F931F93CF93DF9390
:10248000CDB7DEB7A1970FB6F894DEBF0FBECDBFB4
:102490007C01FA01CB0119A2223008F42AE08E0156
:1024A0000F5D1F4F822E912CA12CB12CBF01A501D5
:1024B00094010E941B29F901CA01015011096A30D7
:1024C00014F4605D01C0695CD8016C93232B242B4C
:1024D000252B61F7B801C7010E942112A1960FB602
:1024E000F894DEBF0FBECDBFDF91CF911F910F914A
:1024F000FF90EF90BF90AF909F908F9008957F9244
:102500008F929F92AF92BF92CF92DF92EF92FF9203
:102510000F931F93CF93DF938C016A017B01722E7F
:102520009A01AB01C701B6010E94B02B882319F0B4
:102530006AE971E027C046015701E894B7F82FEF28
:102540003FEF4FE75FE7C501B4010E94B02B811157
:102550000DC02FEF3FEF4FE75FE7C501B4010E94C9
:10256000E62918161CF46EE971E00CC02FEF3FEF5E
:102570004FE75FE4C701B6010E943E2B181694F4A2
:1025800062EA71E0C801DF91CF911F910F91FF9036
:10259000EF90DF90CF90BF90AF909F908F907F9003
:1025A0000C9421122FEF3FEF4FE75FECC701B6010C
:1025B0000E94E62987FDE4CF20E030E0A901C701B1
:1025C000B6010E94E62987FF0AC06DE2C8010E9499
:1025D000F611EC01F7FAF094F7F8F09402C0C0E0BD
:1025E000D0E0B12C60E070E080E09FE3B71440F4ED
:1025F00020E030E040E251E40E94EB29B394F6CFB2
:10260000A70196010E947A296B017C010E945D2A34
:102610004B015C012AE0AB01BC01C8010E943612EB
:10262000C80FD91F7720C1F1C501B4010E948C2ABF
:102630009B01AC01C701B6010E9479296B017C01A5
:102640006EE2C8010E94F611C80FD91F20E030E0E9
:1026500040E251E4C701B6010E94432B4B015C01EB
:102660000E945D2A6B01E12CF12C2AE0B701A60142
:10267000C8010E943612C80FD91FC701B6010E94B7
:102680008C2A9B01AC01C501B4010E9479296B0120
:102690007C017A947110DACFCE01DF91CF911F9136
:1026A0000F91FF90EF90DF90CF90BF90AF909F90F1
:1026B0008F907F9008951F920F920FB60F92112462
:1026C0002F933F934F935F936F937F938F939F933A
:1026D000AF93BF93EF93FF938AEB93E00E94A61012
:1026E000FF91EF91BF91AF919F918F917F916F91EA
:1026F0005F914F913F912F910F900FBE0F901F90C0
:1027000018951F920F920FB60F9211242F938F934B
:102710009F93EF93FF93E091CA03F091CB038081E5
:10272000E091D003F091D10382FD12C0908180919D
:10273000D3038F5F8F732091D403821751F0E09100
:10274000D303F0E0E654FC4F958F8093D30301C090
:102750008081FF91EF919F918F912F910F900FBEEC
:102760000F901F901895CF93DF93EC018A859B857E
:10277000AC85BD858E839F83A887B9870E94561A32
:102780006A837B838C839D8381E089838883DF9147
:10279000CF910895CF93DF93EC018E819F81A8851F
:1027A000B9858A839B83AC83BD830E94561A6A874E
:1027B0007B878C879D8781E089838883DF91CF9198
:1027C00008952F923F924F925F926F927F928F92D5
:1027D0009F92AF92BF92CF92DF92EF92FF920F93B0
:1027E0001F93CF93DF93D82FC92F8B010E94BB2853
:1027F00024E630E040E050E00E941B2949015A01E4
:102800009B01AC0160E876E988E990E00E94F72836
:102810006B017C01F80191828082ED2FFC2F2191C8
:10282000822F022E000C990BC0970A97C0F32E320C
:1028300039F51F0180E8882E86E9982E88E9A82EB0
:10284000B12C9AE0492E512C612C712CF101C191CF
:102850001F010C2E000CDD0BE097CA30D10580F46F
:10286000C501B401A30192010E941B2949015A012B
:10287000DE010E944E29C60ED71EE81EF91EE6CFC5
:10288000A5E0B0E0A70196010E9443296F5F7F4F4A
:102890008F4F9F4F23E030E040E050E00E941B2923
:1028A000F80122833383448355831682DF91CF91CD
:1028B0001F910F91FF90EF90DF90CF90BF90AF905E
:1028C0009F908F907F906F905F904F903F902F9050
:1028D0000895FF920F931F93CF93DF93EC01F8803D
:1028E0002DE2F21201C02196CE010E94BB289B016D
:1028F000AC01A4E6B0E00E944329FE014991242FD7
:10290000042E000C330B205331092A303105A8F373
:102910004E3241F52181022E000C330B2053310938
:102920002A303105F8F44AE0429F8001439F100DA0
:102930001124012E000C220B330B600F711F821F1C
:10294000931F0281002E000C110B005311090A3055
:10295000110540F4012E000C220B330B600F711F88
:10296000821F931F2DE2F21207C0909580957095FB
:1029700061957F4F8F4F9F4FDF91CF911F910F91A7
:10298000FF900895DC0180E0615098F02D91982F20
:102990009227E92FEF70F0E0EF5EFD4F24919295C2
:1029A0009F70E92FF0E0EF5DFD4FE491822F8E27BD
:1029B000EBCF0895FC0190810180F281E02DF89425
:1029C0008181892B81832281892F809528232283ED
:1029D000A7E0B0E01197F1F7218182238183A3E280
:1029E000B0E01197F1F780817894EFECF0E0319747
:1029F000F1F7982381E009F480E00895FC019081CB
:102A00000180F281E02D892F809560FF12C0F8943B
:102A10002281822382838181892B8183A3E2B0E09A
:102A20001197F1F78281982B9283789487ED90E04B
:102A300011C0F8942281822382838181892B818332
:102A4000AFEFB0E01197F1F78281982B92837894E1
:102A50008FE090E00197F1F70895DF92EF92FF92F7
:102A60000F931F93CF93DF93EC01D62EE42E08E053
:102A700010E0FF24F39461E08D2D8F2109F460E0D4
:102A8000CE010E94FE14FF0C01501109A1F7E110C4
:102A900010C0F894E981FA81918188818095892319
:102AA0008183E981FA81928188818095892382835B
:102AB0007894DF91CF911F910F91FF90EF90DF906D
:102AC0000895EF92FF920F931F93CF93DF938C01A2
:102AD0007B0140E065E50E942D15E70188E0E80EE6
:102AE000F11C699140E0C8010E942D15CE15DF054B
:102AF000C1F7DF91CF911F910F91FF90EF90089553
:102B0000DC012C911196ED91FC911297F894818142
:102B1000922F90958923818378948DE743E050E04C
:102B2000815021F1DA011197F1F730813223C1F39D
:102B3000F8948281892382838181822B8183789496
:102B4000ABE7B7E01197F1F7F8948181982391836F
:102B500083E191E00197F1F78081282381E009F07A
:102B600080E07894E3E6F6E03197F1F708951F925C
:102B70000F920FB60F9211242F933F934F935F93B1
:102B80006F937F938F939F93AF93BF93EF93FF9335
:102B9000E091A801F091A901309709F451C0968DF8
:102BA000A685B785858591FF04C09C91892329F46A
:102BB00047C09C91892309F043C0A389B4899C91A3
:102BC0008589809589238C93868997890197F1F768
:102BD000608D718DA685B785558538E020E0CB01E5
:102BE0000197F1F7822F90E095958795282F4C91CA
:102BF000452309F02068315091F7868D81FD20959D
:102C00008091A70190E001968F7399273091A601DA
:102C1000381749F0A091A701B0E0A155BA4F2C9305
:102C20008093A70103C0868D8160868F828D938DEE
:102C30000197F1F7A389B4899C918589892B8C939D
:102C4000FF91EF91BF91AF919F918F917F916F9184
:102C50005F914F913F912F910F900FBE0F901F905A
:102C600018958091AA058823A9F1409118015091E7
:102C7000190160911A0170911B0128EB31E08091DC
:102C8000B8039091B9030E949408811102C080E0BA
:102C900008954091AB055091AC056091AD057091E0
:102CA000AE05411551056105710591F028EB31E044
:102CB0008091B8039091B9030E949408882339F356
:102CC0001092AB051092AC051092AD051092AE05B6
:102CD0001092AA0581E008958F929F92AF92BF92C1
:102CE000EF92FF920F931F93CF934B015C01C42F80
:102CF0008091180190911901A0911A01B0911B01C6
:102D000088159905AA05BB0501F10E9431168111AC
:102D100002C080E020C088EBE82E81E0F82E00E0C1
:102D200012E020E030E0B501A4018091B803909159
:102D3000B9030E94CA04882361F38092180190921B
:102D40001901A0921A01B0921B018091AA05C82B0B
:102D5000C093AA0581E0CF911F910F91FF90EF9052
:102D6000BF90AF909F908F9008954F925F926F9217
:102D70007F928F929F92AF92BF92CF92DF92EF920B
:102D8000FF920F931F93CF93DF93EC0142305105D5
:102D90006105710510F480E078C089859A85AB855E
:102DA000BC850196A11DB11D84179507A607B7071D
:102DB00090F3CB88DC88ED88FE888F89803129F4F8
:102DC000BB27A72F962F852F09C0DB01CA01E7E09B
:102DD000B695A79597958795EA95D1F7480159013A
:102DE0002A013B01C80ED91EEA1EFB1E8091180164
:102DF00090911901A0911A01B0911B01C816D90632
:102E0000EA06FB0681F48F898031A9F4B301A2019F
:102E1000552766277727440F551FFA01E854FE4FC0
:102E20009182808219C040E0C701B6010E946C16F1
:102E30008111E9CFB0CFB301A2014F7755276627A3
:102E40007727440F551F440F551FFA01E854FE4FD2
:102E500080829182A282B3828091AA058160809350
:102E6000AA058A89823080F08D819E81AF81B885E4
:102E7000C80ED91EEA1EFB1EC092AB05D092AC054F
:102E8000E092AD05F092AE0581E0DF91CF911F9108
:102E90000F91FF90EF90DF90CF90BF90AF909F90F9
:102EA0008F907F906F905F904F9008958F929F9238
:102EB000AF92BF92CF92DF92EF92FF920F931F9348
:102EC000CF93DF93FC0181859285A385B48501961C
:102ED000A11DB11D84179507A607B70710F480E060
:102EE0005BC083889488A588B6888789803129F457
:102EF000BB27A72F962F852F09C0DB01CA01C7E08A
:102F0000B695A79597958795CA95D1F7E9016A0176
:102F10007B018F01BC01CD01680D791D8A1D9B1DB0
:102F20008090180190901901A0901A01B0901B0197
:102F3000681579058A059B0591F4F8018789803128
:102F4000A1F4DD24EE24FF24C601880F991FFC01A3
:102F5000E854FE4F80819181A0E0B0E018C040E0CD
:102F60000E946C168111E9CFBACFE894C7F8DD242E
:102F7000EE24FF24C601880F991F880F991FFC01BA
:102F8000E854FE4F80819181A281B381BF70888314
:102F90009983AA83BB8381E0DF91CF911F910F9129
:102FA000FF90EF90DF90CF90BF90AF909F908F9069
:102FB0000895833081F028F4813099F08230A1F0B7
:102FC00008958730A9F08830B9F08430D1F4809129
:102FD00080008F7D03C0809180008F778093800078
:102FE000089584B58F7702C084B58F7D84BD089520
:102FF0008091B0008F7703C08091B0008F7D809367
:10300000B00008953FB7F8948091F4059091F505CC
:10301000A091F605B091F70526B5A89B05C02F3FF6
:1030200019F00196A11DB11D3FBFBA2FA92F982FEE
:103030008827820F911DA11DB11DBC01CD0142E069
:10304000660F771F881F991F4A95D1F708955F92E1
:103050006F927F928F929F92AF92BF92CF92DF92A8
:10306000EF92FF920F931F93CF93DF93CDB7DEB70D
:10307000C754D1090FB6F894DEBF0FBECDBF5C01B7
:103080003B0119A218A28EE391E09F8F8E8F1BA2A5
:103090001C821B829A8389831E8200E010E06E01ED
:1030A0008EE1C80ED11C82E8E82E84E0F82EF501EE
:1030B000E00FF11F80818F3211F40F5F1F4FD50198
:1030C000A00FB11FFE01FB9680E090E04F012D9113
:1030D0002F3249F0222339F001960F5F1F4F2193C1
:1030E0008C309105A1F7F401E80FF91F1082F5016A
:1030F000E00FF11F80818F3211F40F5F1F4FF50138
:10310000E00FF11F508041E0511040E020E030E03E
:10311000B401C701F301099581110AC0F2E8EF1665
:10312000F4E0FF0619F0C7010E94C30380E029C044
:103130005520B9F021E0A401B701C6010E9447065D
:10314000982E82E8E81684E0F806A9F0C7010E94EC
:10315000C303992059F39E2D8F2D7601C92ED82EA9
:10316000A6CF92E8E91694E0F90619F0C7010E948B
:10317000C30381E006C09920C9F2FE0131967F01A8
:10318000EACFC95BDF4F0FB6F894DEBF0FBECDBFED
:10319000DF91CF911F910F91FF90EF90DF90CF9033
:1031A000BF90AF909F908F907F906F905F900895A9
:1031B000462F50E060E070E02AE00C9436120F9346
:1031C0001F93CF93DF93CDB7DEB729970FB6F8944F
:1031D000DEBF0FBECDBF8C01BE016F5F7F4F0E946F
:1031E0007F0B882369F12A8130E0C901982F882755
:1031F000990F990F990F698128E0629FB0011124FE
:103200009C01262B372BF80180818031E1F4688501
:1032100070E08F81AB01481B5109CA019695982F28
:103220008827979587950E94072960517109207F0B
:1032300053E0220F331F5A95E1F7620F731F04C04A
:1032400060E874EE01C0B901613854EE75076CF0A6
:10325000072E000C880B990B0E948E2A20E030E08C
:1032600040E05CE30E94432B04C060E070E08EEF1E
:1032700092EC29960FB6F894DEBF0FBECDBFDF915A
:10328000CF911F910F910895CF92DF92EF92FF920D
:103290000F931F93CF93DF9377FF1DC06A017B01CC
:1032A000EC016DE20E94F6118C0144275527BA010A
:1032B0004C195D096E097F092AE0CE010E94361281
:1032C000800F911FDF91CF911F910F91FF90EF9091
:1032D000DF90CF9008952AE0DF91CF911F910F9159
:1032E000FF90EF90DF90CF900C943612CF93DF9346
:1032F000EFE3F2E08491E1E0F2E0D491EDEEF1E071
:10330000C491CC2391F081110E94D917EC2FF0E0E9
:10331000EE0FFF1FEB52FE4FA591B491EC91ED2300
:1033200081E090E021F480E002C080E090E0DF9155
:10333000CF9108951F93CF93DF93282F30E0F901A9
:10334000E55CFD4F8491F901E350FE4FD491F90102
:10335000E751FE4FC491CC23C1F0162F81110E947A
:10336000D917EC2FF0E0EE0FFF1FE152FE4FA591B1
:10337000B4919FB7F894111104C08C91D095D823C3
:1033800002C0EC91DE2BDC939FBFDF91CF911F91A8
:103390000895CF93DF9390E0FC01E350FE4F24911A
:1033A000FC01E751FE4F8491882361F190E0880F82
:1033B000991FFC01EF5CFD4FC591D491FC01E152D6
:1033C000FE4FA591B491611109C09FB7F89488810F
:1033D000209582238883EC912E230BC0623061F408
:1033E0009FB7F8948881322F309583238883EC919E
:1033F0002E2B2C939FBF06C08FB7F894E8812E2BFD
:1034000028838FBFDF91CF9108958E3008F08E50C2
:103410008770806480937C0080917A0080648093C0
:103420007A0080917A0086FDFCCF8091780020910F
:10343000790090E0922B08958F929F92AF92BF9265
:10344000CF92DF92EF92FF926B017C010E940218F3
:103450004B015C01C114D104E104F104F1F00E94BC
:103460000218DC01CB0188199909AA09BB09883E19
:103470009340A105B10570F321E0C21AD108E1081B
:10348000F10888EE880E83E0981EA11CB11CC114BF
:10349000D104E104F10419F7DDCFFF90EF90DF9044
:1034A000CF90BF90AF909F908F9008952FB7F894D2
:1034B0006091F0057091F1058091F2059091F3050E
:1034C0002FBF08951F920F920FB60F9211242F93C2
:1034D0003F938F939F93AF93BF938091F00590910B
:1034E000F105A091F205B091F3053091EF0523E0CD
:1034F000230F2D3720F40196A11DB11D05C026E82C
:10350000230F0296A11DB11D2093EF058093F005B6
:103510009093F105A093F205B093F3058091F40523
:103520009091F505A091F605B091F7050196A11DC2
:10353000B11D8093F4059093F505A093F605B09323
:10354000F705BF91AF919F918F913F912F910F9070
:103550000FBE0F901F901895CF93DF93CDB7DEB7B6
:103560006F970FB6F894DEBF0FBECDBF789484B5C9
:10357000826084BD84B5816084BD85B5826085BD6F
:1035800085B5816085BD80916E00816080936E00FD
:1035900010928100809181008260809381008091EF
:1035A00081008160809381008091800081608093A0
:1035B00080008091B10084608093B1008091B00060
:1035C00081608093B00080917A00846080937A005B
:1035D00080917A00826080937A0080917A00816085
:1035E00080937A0080917A00806880937A001092AC
:1035F000C100E091CA03F091CB0382E08083E091A7
:10360000C603F091C7031082E091C803F091C9038B
:1036100080E180831092D203E091CE03F091CF033A
:1036200086E08083E091CC03F091CD0380818061BE
:103630008083E091CC03F091CD038081886080830A
:10364000E091CC03F091CD03808180688083E0918C
:10365000CC03F091CD0380818F7D808310929805FB
:103660001092970510929605109295051092940568
:10367000109293058DE991E090939A0580939905B6
:1036800090918905963108F058C02DEB30E03093C9
:103690009405209393052BE931E030939605209310
:1036A00095052CE231E030939805209397054091E1
:1036B0006800983058F031E09E3008F430E021E0A6
:1036C000822F01C0880F3A95EAF701C084E0842B6D
:1036D00080936800983038F09E3040F0963148F082
:1036E00020E030E008C02DE630E005C02BE630E0F9
:1036F00002C02CE630E0309391052093900598307D
:1037000030F481E001C0880F9A95EAF70EC0292FA6
:1037100030E09E3018F42850310902C02E50310993
:1037200081E001C0880F2A95EAF780939205809185
:10373000990590919A050197F1F7809197059091DD
:103740009805892B49F1E091A801F091A90125E0A4
:10375000ED37F20709F1309739F0A389B4899C91CC
:103760008589809589238C9380919B058E7F80939A
:103770009B051092A7011092A6018DE795E090930A
:10378000A9018093A801E0919005F09191059081A5
:1037900080919205892B8083E091A704F091A80481
:1037A000138615861486DF011B9633961E92AE177C
:1037B000BF07E1F71092A5041092A60411E0BE0124
:1037C0006F5F7F4F8091A7049091A8040E94140C12
:1037D000882309F45CC067E0CE0101960E94C21400
:1037E00098858913ECCF8091A104811127C0809125
:1037F000A7049091A8040E948015BE016F5F7F4FBF
:103800008091A7049091A8040E94611540E064EBA8
:103810008091A7049091A8040E942D158091A7047F
:103820009091A8040E94DA14082F8091A704909127
:10383000A8040E948015002309F42FC10091A2045E
:10384000CE0101960E94E20B801718F48091A20429
:1038500004C0CE0101960E94E20B8093A2048091E5
:10386000A5048F5F8093A5048981883209F418C16B
:1038700038F4803109F414C1823209F0A0CF10C1AC
:103880008B3309F40DC1823409F099CF09C161E08D
:103890008AE00E94C91960E084E00E94C91961E0D1
:1038A00083E00E94C91961E087E00E94C91960E0C5
:1038B00087E00E949A19109262041092600410929C
:1038C0005D0410925C04109263048AE080935B04B0
:1038D0008FEF8093B6018093B5018093B3010E946E
:1038E000561A8B0161E080915B040E94C91987E53B
:1038F00094E00E94CF03FFB6F8948091B401811147
:1039000027C0E3EFF1E08491E7E0F2E09491E82F43
:10391000F0E0EE0FFF1FEF5CFD4FA591B491EC912D
:10392000E92321F461E08AE00E949A1961E08AE0CB
:103930000E94C9198CB580618CBD8CB580648CBD2A
:1039400061E08DE00E94C91961E08BE00E94C91915
:103950008091B4018F5F8093B401FFBE83E00E9429
:10396000D70AAAE0FA2E8FEF0E943E04FA94F110D3
:10397000FACF60E080915B040E949A1920E030E069
:10398000A90160E087E594E00E947A04F82E809314
:10399000610431E0831749F00E94561A601B710BD5
:1039A000613D774058F381E056C02AEA31E040E0BB
:1039B00050E068E087E594E00E947A0482FF03C04B
:1039C000F092620410C0F4E0FF2E0E94D4038093B2
:1039D0006104FA94F110F9CF8A3A11F082E03BC009
:1039E00082E08093620480916204823021F0C12CD5
:1039F000D12C760105C0C12CD12CE12CE0E4FE2EA7
:103A000020E030E0A90167E387E594E00E947A04B2
:103A1000A701960169E287E594E00E947A04809309
:103A20006104882349F00E94561A601B710B613DA6
:103A3000774030F388E00FC080916204823009F54E
:103A400020E030E0A9016AE387E594E00E947A046F
:103A5000882349F086E080935C0487E594E00E9427
:103A6000CF030C94A9260E94D403807C803C19F4D7
:103A700083E0809362040E94D4030E94D4030E94D6
:103A8000D40387E594E00E94CF038091B3018F3F78
:103A900069F480E00E94D70A09C01093A104CECE39
:103AA0008091A6048F5F8093A60489CE81E00E9456
:103AB000E10D811107C080E00E94E10D882311F41F
:103AC0000C94A9268091870481110C94A9268091D9
:103AD0007B04803109F582E0809387041092990479
:103AE00010929A0410929B0410929C0480917C0482
:103AF00090917D04A0E0B0E075E0880F991FAA1FA7
:103B0000BB1F7A95D1F78093950490939604A09368
:103B10009704B093980421C0803211F00C94A92628
:103B200083E08093870440917E0450917F046091EC
:103B30008004709181044093990450939A04609397
:103B40009B0470939C0425E934E084E694E00E9491
:103B5000780D882311F40C94A92684E694E09093C0
:103B60009E0480939D0481E08093860410928804D3
:103B70001092890410928A0410928B0410928C0483
:103B800010928D0410928E0410928F041092900463
:103B90001092910410929204109293041092940443
:103BA00080E191E00E94960C88E091E00E94960CE2
:103BB00080E091E00E94960C54E6C52ED12CE12CB9
:103BC000F12C60E1462E67E2562E612C712C0E948A
:103BD00076198093B701882309F49DC08EE291E0A5
:103BE0000E946C0B8091B701882311F40C94A526D8
:103BF0008AEB93E00E946E108C01AC01990F660B6A
:103C0000770B8AEB93E00E94441966E771E08AEB38
:103C100093E00E94211202331105D1F00333110504
:103C200009F44AC00133110509F070C063E378E07C
:103C300089E791E00E942718882319F08AEE90E026
:103C400002C08DED90E00E946C0B86ED90E056C0B6
:103C500061E0CE0101960E94B50FEA8DFB8D309791
:103C600021F18581882309F1CE0101960E9454013A
:103C7000892B51F0CE0101960E946008682F8AEBD3
:103C800093E00E94C810F0CFCE0101960E94240359
:103C90008A8D9B8D009769F00E94C3038A8D9B8D4E
:103CA0000E944D2C1B8E1A8E04C08BEF90E00E9458
:103CB0006C0B84EF90E022C063E378E089E791E049
:103CC0000E9427188823A1F063EF77E089E791E04D
:103CD0000E94271863E378E089E791E00E942718A3
:103CE000882319F085E291E005C088E191E002C0E7
:103CF0008BE091E00E946C0B84E091E00E946C0BE1
:103D000068EE73E080E090E00E941C1A0E94761931
:103D10008093B70167CF22242394332433948DE713
:103D200095E00E94AA11181619060CF0DEC78DE75F
:103D300095E00E94C211B82E80916D0590916E059C
:103D4000A0916F05B09170050196A11DB11D8093E2
:103D50006D0590936E05A0936F05B093700584E296
:103D6000B81609F46BC2E09167058B153CF09AE038
:103D7000B91679F0ADE0BA126FC20BC0BAE2BB1649
:103D800041F0FCE2BF1268C2809154058B258093FC
:103D90005405EF3008F03EC2F0E0EA5AFA4F1082C4
:103DA00080915505882309F41EC1209156053FEBEB
:103DB000320F822F022E000C990B363010F4C79769
:103DC00007C02156263018F48755910901C0C097C5
:103DD000282F2295207F309157054FEB430F832FDB
:103DE000032E000C990B463010F4C79707C03156CC
:103DF000363018F48755910901C0C097820F909111
:103E000054058913DCC08091790590917A05A091C1
:103E10007B05B0917C050196A11DB11D80937905AC
:103E200090937A05A0937B05B0937C0580916805FB
:103E3000882399F08091710590917205A091730586
:103E4000B09174050196A11DB11D809371059093E9
:103E50007205A0937305B093740510916505112345
:103E6000B9F1113009F082C082EF94E00E94CA13C8
:103E700080E095E00E94CA1380916805882309F4C8
:103E800075C087E0E0EEF4E0A2EDB4E001900D92A1
:103E90008A95E1F787E0E7EEF4E0A9EDB4E0019060
:103EA0000D928A95E1F70E94561A6093EE04709382
:103EB000EF048093F0049093F1041093D1041093D5
:103EC000D0048EE095E00E94B3138CE195E04CC0E5
:103ED00080E095E00E94CA1380916805882321F153
:103EE00087E0E0EEF4E0A2EDB4E001900D928A9557
:103EF000E1F787E0E7EEF4E0A9EDB4E001900D9280
:103F00008A95E1F70E94561A6093EE047093EF04CD
:103F10008093F0049093F1043092D1043092D00455
:103F20008AE295E00E94B313809142059091430587
:103F3000A0914405B091450580933E0590933F05BF
:103F4000A0934005B09341050E94561A60933A052C
:103F500070933B0580933C0590933D053092390565
:103F60003092380586E495E00E94B31300916B050A
:103F700010916C050115110509F44EC1E0916B0516
:103F8000F0916C0566A177A1D80196968D919C91D0
:103F900097970E94E82C892B09F03EC1B801C8010F
:103FA00040960E94F12C0E94561AF80160A371A35A
:103FB00082A393A325A224A202A513A5DBCF8091FF
:103FC000750590917605A0917705B09178050196D9
:103FD000A11DB11D8093750590937605A09377057B
:103FE000B093780517C190916605911148C062E8B9
:103FF00071E086E595E00E94E82C892B41F068E8A5
:1040000071E086E595E00E94E82C892B19F4309246
:10401000650516C06EE871E086E595E00E94E82C23
:10402000892B41F064E971E086E595E00E94E82C77
:10403000892B19F41092650503C0F2E0F093650531
:104040008091690590916A0590936C0580936B054A
:1040500000916B0510916C050115110509F4DAC08A
:1040600066E575E0D80196968D919C9197970E9490
:10407000E82C97FFC9C0F80182A593A5E5CFE09190
:104080006505E23009F491C080915605882309F452
:104090008CC020E2E29FF0011124E92B3197E93234
:1040A000F10508F082C0EC5CFF4F0C943D2986E5D9
:1040B00095E00E946914609306057093070580934C
:1040C00008059093090571C091E0813409F043C05F
:1040D00043C060EE74E009C091E0833509F090E0E0
:1040E0009093E60462C067EE74E086E595E00E9476
:1040F000E1135BC091E0873509F090E09093ED0407
:1041000054C086E595E00E94691460931805709389
:10411000190580931A0590931B0547C086E595E025
:104120000E946914609326057093270580932805E3
:10413000909329053AC086E595E00E94BB286093DC
:10414000F8047093F9048093FA049093FB042DC053
:1041500091E081330CF490E09093680526C086E5E9
:1041600095E00E94BB2860934205709343058093BD
:1041700044059093450519C086E595E00E946914B1
:1041800060935005709351058093520590935305A9
:104190000CC086E595E00E94691460933405709325
:1041A0003505809336059093370500916B05109186
:1041B0006C050115110571F1E0916B05F0916C052D
:1041C00066A177A1D80196968D919C9197970E94B0
:1041D000E82C892BF9F4F80120A531A5809166051A
:1041E00090E082179307B4F02817390739F440E1BB
:1041F00050E066E575E0C8010E94F82CD8019A9657
:104200000D911C919B97D5CF892B21F010926C05B5
:1042100010926B0580E001C081E0909166059F5F80
:10422000909366051092670591E0BAE2BB1290E0A8
:1042300090935505882309F472CD22C0109267052A
:104240001092660510925405E2E0E0936505109225
:1042500055051092680563CDEE3040F481E08E0F75
:1042600080936705F0E0EA5AFA4FB08280915505D5
:10427000811155CD80915405B826B09254054FCD8B
:104280008091D004882309F44ACD8091F2048823D8
:1042900009F445CD80910005882309F440CD63E100
:1042A000CE0101960E94B50F8B819C819093B8043A
:1042B0008093B7048D819E81AF81B8858093B904C6
:1042C0009093BA04A093BB04B093BC0489859A85EB
:1042D000AB85BC858093BD049093BE04A093BF04BE
:1042E000B093C004DE011D96E1ECF4E08D91819362
:1042F00024E0EE3CF207D1F7EA8DFB8DF093CF047A
:10430000E093CE04309769F18581882351F11092B2
:10431000D1046091D4047091D5048091D604909119
:10432000D7040E948C2A28E23BE64EE65EE40E9417
:10433000EB294B015C016091D2047091D30480E0C1
:1043400090E00E948C2A9B01AC01C501B4010E943F
:104350007A292091D804AB01BC01222301F17058C5
:104360001EC084E391E00E946C0B03E010E061E06A
:1043700083E00E949A1968EB7BE080E090E00E9465
:104380001C1A60E083E00E949A1968EE73E080E0F6
:1043900090E00E941C1A0150110949F7B8CF26E09D
:1043A00030E085EB94E00E947F126EE871E085EBCF
:1043B00094E00E94FD111092D1046091DB04709191
:1043C000DC048091DD049091DE040E948C2A28E2B6
:1043D0003BE64EE65EE40E94EB294B015C016091F6
:1043E000D9047091DA0480E090E00E948C2A9B014D
:1043F000AC01C501B4010E947A292091DF04AB0110
:10440000BC012111705826E030E085EB94E00E9459
:104410007F126CE871E085EB94E00E94FD11109230
:10442000F3046091F4047091F5048091F604909186
:10443000F704A70196010E941B296053784FAB0136
:1044400060E070E02AE085EB94E00E9436126AE8B2
:1044500071E085EB94E00E94FD111092F3046091ED
:10446000F4047091F5048091F6049091F704A7018B
:1044700096010E941B296053784FAB0160E070E009
:104480002AE085EB94E00E94361268E871E085EB43
:1044900094E00E94FD111092F3046091F404709175
:1044A000F5048091F6049091F704A30192010E9413
:1044B0001B29622F85EB94E00E94D81866E871E012
:1044C00085EB94E00E94FD111092D1046091D40418
:1044D0007091D5048091D6049091D7040E948C2AC3
:1044E00028E23BE64EE65EE40E94EB294B015C01CC
:1044F0006091D2047091D30480E090E00E948C2AF5
:104500009B01AC01C501B4010E947A292091D80415
:10451000AB01BC012111705826E030E08AEB93E03A
:104520000E947F1264E871E08AEB93E00E94FD1123
:104530001092D1046091DB047091DC048091DD0461
:104540009091DE040E948C2A28E23BE64EE65EE46F
:104550000E94EB294B015C016091D9047091DA044F
:1045600080E090E00E948C2A9B01AC01C501B4015F
:104570000E947A292091DF04AB01BC0121117058FF
:1045800026E030E08AEB93E00E947F1262E871E05F
:104590008AEB93E00E94FD111092F3046091F40401
:1045A0007091F5048091F6049091F704A7019601AB
:1045B0000E941B296053784FAB0160E070E02AE055
:1045C0008AEB93E00E94361260E871E08AEB93E098
:1045D0000E94FD111092F3046091F4047091F504AF
:1045E0008091F6049091F704A70196010E941B297F
:1045F0006053784FAB0160E070E02AE08AEB93E013
:104600000E9436126EE771E08AEB93E00E94FD1182
:104610001092F3046091F4047091F5048091F60413
:104620009091F704A30192010E941B29622F8AEB4B
:1046300093E00E94D8186CE771E08AEB93E00E9447
:10464000FD111092010560910205709103058091A2
:1046500004059091050520E432E44FE050E00E940B
:104660001B292A3030F46AE771E085EB94E00E9460
:10467000FD11109201056091020570910305809172
:1046800004059091050520E432E44FE050E00E94DB
:104690001B29622F85EB94E00E94D81868E771E02F
:1046A00085EB94E00E94FD111092010560910205D6
:1046B00070910305809104059091050520E432E492
:1046C0004FE050E00E941B29622F8AEB93E00E948A
:1046D000D81866E771E08AEB93E00E94FD11109212
:1046E0000105609102057091030580910405909188
:1046F0000505A30192010E941B29CA01B901A70166
:1047000096010E941B296A3030F464E771E085EB62
:1047100094E00E94FD1110920105609102057091D4
:1047200003058091040590910505A30192010E9463
:104730001B29CA01B901A70196010E941B2985EB1B
:1047400094E00E94D81862E771E085EB94E00E9443
:10475000FD11109201056091020570910305809191
:10476000040590910505A30192010E941B29CA012D
:10477000B901A70196010E941B298AEB93E00E94D0
:10478000D81860E771E08AEB93E00E94FD11109267
:1047900001056091020570910305809104059091D7
:1047A0000505A70196010E941B29CA01B901A701AD
:1047B00096010E941B296A3030F46EE671E085EBA9
:1047C00094E00E94FD111092010560910205709124
:1047D00003058091040590910505A70196010E94AB
:1047E0001B29CA01B901A70196010E941B2985EB6B
:1047F00094E00E94D8186CE671E085EB94E00E948A
:10480000FD111092010560910205709103058091E0
:10481000040590910505A70196010E941B29CA0174
:10482000B901A70196010E941B298AEB93E00E941F
:10483000D8186AE671E08AEB93E00E94FD1180913E
:10484000A7049091A8040E94801540E06CEC809130
:10485000A7049091A8040E942D154091A10464E43E
:104860008091A7049091A8040E942D158091A30423
:10487000882309F443C0E091A204E950E33040F4F6
:10488000F0E0EE0FFF1FEE5DFE4F0081118102C0D0
:104890000EEE12E08091A404882351F18091A104CE
:1048A000811126C00E94561A4B015C01C801110FEC
:1048B000AA0BBB0B8C8F9D8FAE8FBF8F8091A704EF
:1048C0009091A8040E94DA148130C1F00E94561A17
:1048D000DC01CB012C8D3D8D4E8D5F8D821B930BAA
:1048E000A40BB50B88159905AA05BB0538F306C0BE
:1048F000B801110F880B990B0E941C1A64EF71E02C
:1049000080E090E00E941C1A80E191E00E94DF1894
:10491000AB01BC0124E030E085EB94E00E947F1203
:104920006AE971E085EB94E00E94FD1188E091E076
:104930000E94DF18AB01BC0124E030E085EB94E07D
:104940000E947F1268E971E085EB94E00E94FD11FE
:1049500080E091E00E94DF18AB01BC0124E030E070
:1049600085EB94E00E947F1266E971E085EB94E0AC
:104970000E94FD1180E191E00E94DF18AB01BC01B3
:1049800024E030E08AEB93E00E947F1264E971E05A
:104990008AEB93E00E94FD1188E091E00E94DF180D
:1049A000AB01BC0124E030E08AEB93E00E947F126F
:1049B00062E971E08AEB93E00E94FD1180E091E0F2
:1049C0000E94DF18AB01BC0124E030E08AEB93E0E9
:1049D0000E947F1260E971E08AEB93E00E94FD1172
:1049E00002E310E0812C912C540180E00E94051A12
:1049F000BC01990F880B990B0E948E2A20E030E0B1
:104A000040E85AE30E94432B9B01AC01C501B4016D
:104A10000E947A294B015C016AE070E080E090E03E
:104A20000E941C1A0150110901F720E030E048E40F
:104A300052E4C501B4010E94EB2920E030E040EAD5
:104A400050E40E94432B4B015C012DEC3CEC4CE408
:104A50005EE30E94E62987FF08C03DEC832E3CEC14
:104A6000932E3CE4A32E3EE3B32E2DEC3CEC4CE421
:104A70005EE3C501B4010E94792920E038EC4FE2E1
:104A800054E40E94432B2AE939E949E850E40E94A2
:104A9000EB2920E030E0A9010E947A29AB01BC019A
:104AA00024E030E085EB94E00E947F126EE971E033
:104AB00085EB94E00E94FD1124E030E0B501A401F3
:104AC0008AEB93E00E947F126CE971E08AEB93E03D
:104AD0000E94FD1102E310E0812C912C54018FE023
:104AE0000E94051ABC01990F880B990B0E948E2A0F
:104AF00020E030E040E85AE30E94432B9B01AC01E8
:104B0000C501B4010E947A294B015C016AE070E0A2
:104B100080E090E00E941C1A0150110901F720E08A
:104B200030E048E452E4C501B4010E94EB2920E0E2
:104B300030E04AE754E40E94432B4B015C0120E043
:104B400030E048E452E40E94E62987FD70C020E08E
:104B500030E043E653E4C501B4010E94E62987FD35
:104B600069C020E030E04FE953E4C501B4010E9480
:104B7000E62987FD62C020E030E04CEC53E4C5013B
:104B8000B4010E94E62987FD5BC020E030E84BEFCE
:104B900053E4C501B4010E94E62987FD54C020E01A
:104BA00030E847E154E4C501B4010E94E62987FDDD
:104BB0004DC020E030E04EE254E4C501B4010E9453
:104BC000E62987FD46C020E030EC46E454E4C50108
:104BD000B4010E94E62987FD3FC020E030E44CE5A7
:104BE00054E4C501B4010E94E62987FD38C020E0E5
:104BF00030E044E754E4C501B4010E94E62987FD92
:104C000031C020E030EE46E854E4C501B4010E9412
:104C1000E629882E880F9908C4018827990F881FD4
:104C200099274BE050E0481B590BCA011DC080E09A
:104C300090E01AC081E090E017C082E090E014C0DC
:104C400083E090E011C084E090E00EC085E090E049
:104C50000BC086E090E008C087E090E005C088E0E7
:104C600090E002C089E090E04C01990FAA08BB08CF
:104C7000B501A40185EB94E00E944419B501A4019B
:104C80008AEB93E00E94441966E771E08AEB93E0B7
:104C90000E94211285EB94E00E94240366E771E0F4
:104CA00085EB94E00E94211285EB94E00E9424039E
:104CB0008091CE049091CF04009761F00E94C303CD
:104CC0008091CE049091CF040E944D2C1092CF047D
:104CD0001092CE0461E087E00E949A1960E67AEEB5
:104CE00080E090E00E941C1A1AC80E94561A613295
:104CF0007E448105910548F180916D0590916E0586
:104D0000A0916F05B09170050A97A105B105E8F46F
:104D100080EA91E00E946C0B0AE010E061E083E021
:104D20000E949A1968EE73E080E090E00E941C1ADD
:104D300060E083E00E949A1968EE73E080E090E002
:104D40000E941C1A0150110949F70E9437110C9456
:104D5000E71D8AEB90E00E946C0B61E083E00E940B
:104D60009A19FFCF88E691E090937E0580937D05A8
:104D70008091A8019091A9018D57954071F4E0911F
:104D80009005F091910590818091920580958923FD
:104D900080831092A9011092A80108951092BD037A
:104DA0001092BC0388EE93E0A0E0B0E08093BE03D5
:104DB0009093BF03A093C003B093C1032CE231E0F2
:104DC0003093BB032093BA0325EC30E03093C70344
:104DD0002093C60324EC30E03093C9032093C8032A
:104DE00020EC30E03093CB032093CA0321EC30E079
:104DF0003093CD032093CC0322EC30E03093CF03EB
:104E00002093CE0326EC30E03093D1032093D003DF
:104E10001092D3031092D4031092D5031092D603AC
:104E200010925C0410925D0410926004109262046F
:104E300042E050E060E070E0409364045093650409
:104E4000609366047093670410927B04109285044B
:104E5000109284042EE331E0309383042093820483
:104E6000109287041092800510927F05809381052F
:104E700090938205A0938305B093840588E691E022
:104E800090937E0580937D05109294051092930572
:104E9000109296051092950510929805109297051C
:104EA00010929A051092990560919B056E7F6D7F17
:104EB00060939B056695617081E0682789E00E9498
:104EC0009A1961E089E00E94C919E6E0F2E0E491F4
:104ED000E0938D05E2EFF1E0E491F0E0EE0FFF1FCB
:104EE000E152FE4F8591949190938F0580938E05AA
:104EF00060E088E00E94C91980919B0581FD04C093
:104F000061E088E00E949A1988E080938905E5E0D5
:104F1000F2E0E491E0938A05E1EFF1E0E491F0E062
:104F2000EE0FFF1FEB52FE4F8591949190938C05ED
:104F300080938B051092D0041092D1041092D30468
:104F40001092D2041092D4041092D5041092D60478
:104F50001092D7041092D8041092DA041092D90457
:104F60001092DB041092DC041092DD041092DE0437
:104F70001092DF041092E1041092E0041092E20417
:104F80001092E3041092E4041092E5041092E604F7
:104F90001092E8041092E7041092E9041092EA04D7
:104FA0001092EB041092EC041092ED041092F204B3
:104FB0001092F3041092F4041092F5041092F60487
:104FC0001092F7041092000510920105109202054C
:104FD00010920305109204051092050510920E051B
:104FE00010920F05109214051092150510921605D7
:104FF0001092170510921C0510921D0510922205A3
:1050000010922305109224051092250510922A056E
:1050100010922B0510923005109231051092320536
:1050200010923305109238051092390510923E0502
:1050300010923F05109240051092410510924605CE
:105040001092470510924C0510924D0510924E0596
:1050500010924F05109254051092550582E08093EE
:10506000650510926605109267051092680510920A
:105070006A051092690510926C0510926B051092EA
:105080006D0510926E0510926F05109270051092CA
:1050900071051092720510927305109274051092AA
:1050A000750510927605109277051092780510928A
:1050B000790510927A0510927B0510927C0510926A
:1050C00056051092B8041092B70488EE93E0A0E061
:1050D000B0E08093B9049093BA04A093BB04B0935A
:1050E000BC048AE491E09093B6048093B5041092D6
:1050F000CF041092CE041092C10460E085E00E94BB
:10510000C919E2E0F2E0E491E0939C05EEEEF1E0F3
:10511000E491F0E0EE0FFF1FEB52FE4F859194916A
:1051200090939E0580939D051092A7051092A90566
:105130001092A805E7EAF5E08FE995E012928E1744
:105140009F07E1F78CE995E09093A8048093A7046A
:105150001092A5041092A6041092A10489E08093F5
:10516000A20481E08093A3048093A4041092B40469
:105170001092B30408951F93FC0199278827BC015E
:10518000E89411911032E9F3193010F01E30C8F391
:105190001B3251F01D3249F4689406C00E94E22887
:1051A000610F711D811D911D119110531A30B0F3C3
:1051B0003EF490958095709561957F4F8F4F9F4FEE
:1051C0001F910895592F482F372F262F660F771FCD
:1051D000881F991F660F771F881F991F620F731F03
:1051E000841F951F660F771F881F991F0895DB0185
:1051F0008F939F930E944329BF91AF91A29F800DEF
:10520000911DA39F900DB29F900D1124089597FBBF
:10521000072E16F4009407D077FD09D00E94562976
:1052200007FC05D03EF4909581959F4F08957095A9
:1052300061957F4F0895A1E21A2EAA1BBB1BFD01A9
:105240000DC0AA1FBB1FEE1FFF1FA217B307E40765
:10525000F50720F0A21BB30BE40BF50B661F771FBD
:10526000881F991F1A9469F760957095809590959D
:105270009B01AC01BD01CF010895EE0FFF1F05900A
:10528000F491E02D09940E946A29A59F900DB49F86
:10529000900DA49F800D911D11240895B7FF0C94CB
:1052A00043290E944329821B930B0895AA1BBB1B11
:1052B00051E107C0AA1FBB1FA617B70710F0A61B16
:1052C000B70B881F991F5A95A9F780959095BC0137
:1052D000CD010895A29FB001B39FC001A39F700D9F
:1052E000811D1124911DB29F700D811D1124911DEE
:1052F00008955058BB27AA270E9491290C94042B8B
:105300000E94F62A38F00E94FD2A20F039F49F3FCF
:1053100019F426F40C94F32A0EF4E095E7FB0C94B0
:10532000ED2AE92F0E94152B58F3BA17620773076D
:105330008407950720F079F4A6F50C94372B0EF42A
:10534000E0950B2EBA2FA02D0B01B90190010C0195
:10535000CA01A0011124FF27591B99F0593F50F4AD
:10536000503E68F11A16F040A22F232F342F442705
:10537000585FF3CF469537952795A795F0405395FD
:10538000C9F77EF41F16BA0B620B730B840BBAF0CD
:105390009150A1F0FF0FBB1F661F771F881FC2F738
:1053A0000EC0BA0F621F731F841F48F4879577954C
:1053B0006795B795F7959E3F08F0B0CF9395880F06
:1053C00008F09927EE0F9795879508950E94C92AAE
:1053D00008F481E008950E94FF290C94042B0E9498
:1053E000FD2A58F00E94F62A40F029F45F3F29F088
:1053F0000C94ED2A51110C94382B0C94F32A0E9432
:10540000152B68F39923B1F3552391F3951B550B95
:10541000BB27AA2762177307840738F09F5F5F4F87
:10542000220F331F441FAA1FA9F335D00E2E3AF0C6
:10543000E0E832D091505040E695001CCAF72BD0DE
:10544000FE2F29D0660F771F881FBB1F261737072F
:105450004807AB07B0E809F0BB0B802DBF01FF2761
:1054600093585F4F3AF09E3F510578F00C94ED2A27
:105470000C94382B5F3FE4F3983ED4F386957795F0
:105480006795B795F7959F5FC9F7880F911D96951A
:10549000879597F90895E1E0660F771F881FBB1F76
:1054A000621773078407BA0720F0621B730B840B23
:1054B000BA0BEE1F88F7E09508950E941D2B88F027
:1054C0009F5798F0B92F9927B751B0F0E1F0660FC8
:1054D000771F881F991F1AF0BA95C9F714C0B13009
:1054E00091F00E94372BB1E008950C94372B672F71
:1054F000782F8827B85F39F0B93FCCF38695779538
:105500006795B395D9F73EF4909580957095619520
:105510007F4F8F4F9F4F0895E89409C097FB3EF44B
:1055200090958095709561957F4F8F4F9F4F9923F0
:10553000A9F0F92F96E9BB279395F695879577956E
:105540006795B795F111F8CFFAF4BB0F11F460FF2E
:105550001BC06F5F7F4F8F4F9F4F16C0882311F086
:1055600096E911C0772321F09EE8872F762F05C09A
:10557000662371F096E8862F70E060E02AF09A9535
:10558000660F771F881FDAF7880F9695879597F92A
:105590000895990F0008550FAA0BE0E8FEEF1616C4
:1055A0001706E807F907C0F012161306E407F50717
:1055B00098F0621B730B840B950B39F40A2661F08B
:1055C000232B242B252B21F408950A2609F4A1402E
:1055D000A6958FEF811D811D089597F99F6780E83B
:1055E00070E060E008959FEF80EC089500240A9435
:1055F0001616170618060906089500240A941216AE
:105600001306140605060895092E0394000C11F4E0
:10561000882352F0BB0F40F4BF2B11F460FF04C08D
:105620006F5F7F4F8F4F9F4F089557FD9058440FE6
:10563000551F59F05F3F71F04795880F97FB991FF1
:1056400061F09F3F79F087950895121613061406AE
:10565000551FF2CF4695F1DF08C01616170618063B
:10566000991FF1CF86957105610508940895E89416
:10567000BB2766277727CB0197F908950E94C92A8F
:1056800008F48FEF08950E94562B0C94042B0E946F
:10569000F62A38F00E94FD2A20F0952311F00C9490
:1056A000ED2A0C94F32A11240C94382B0E94152B0C
:1056B00070F3959FC1F3950F50E0551F629FF00165
:1056C000729FBB27F00DB11D639FAA27F00DB11D7E
:1056D000AA1F649F6627B00DA11D661F829F222707
:1056E000B00DA11D621F739FB00DA11D621F839F8E
:1056F000A00D611D221F749F3327A00D611D231F64
:10570000849F600D211D822F762F6A2F11249F57B1
:1057100050409AF0F1F088234AF0EE0FFF1FBB1FB4
:10572000661F771F881F91505040A9F79E3F510573
:1057300080F00C94ED2A0C94382B5F3FE4F3983EF4
:10574000D4F3869577956795B795F795E7959F5F1D
:10575000C1F7FE2B880F911D9695879597F90895AF
:105760000E94C92A880B990B08950F931F93CF931A
:10577000DF938230910510F482E090E0E091FA0529
:10578000F091FB0520E030E0A0E0B0E0309719F1A7
:10579000408151810281138148175907C8F084174D
:1057A000950769F4109731F012960C93129713969F
:1057B0001C9327C00093FA051093FB0522C0211506
:1057C000310519F04217530718F49A01BD01EF0192
:1057D000DF01F801DBCF21153105F9F0281B390B6A
:1057E0002430310580F48A819B816115710521F097
:1057F000FB019383828304C09093FB058093FA0599
:10580000FE01329644C0FE01E20FF31F8193919393
:1058100022503109398328833AC02091F80530910C
:10582000F905232B41F420911E0130911F01309383
:10583000F9052093F80520911C0130911D012115D7
:10584000310541F42DB73EB740912001509121011F
:10585000241B350BE091F805F091F905E217F307E9
:10586000A0F42E1B3F0B2817390778F0AC014E5FD0
:105870005F4F2417350748F04E0F5F1F5093F9050F
:105880004093F8058193919302C0E0E0F0E0CF01EE
:10589000DF91CF911F910F910895CF93DF930097E0
:1058A00009F481C0FC01329713821282A091FA059B
:1058B000B091FB05109781F420813181820F931FF5
:1058C0002091F8053091F9052817390751F5F09323
:1058D000F905E093F80567C0ED0120E030E0CE1750
:1058E000DF0740F44A815B819E0141155105F1F0CB
:1058F000EA01F5CFD383C28340815181840F951F84
:10590000C817D90759F488819981840F951F029689
:10591000918380838A819B819383828321153105C2
:1059200029F4F093FB05E093FA053DC0E901FB8300
:10593000EA8349915991C40FD51FEC17FD0761F413
:1059400080819181840F951F0296E9019983888354
:10595000828193819B838A83E0E0F0E012968D91AF
:105960009C911397009719F0FD01DC01F7CF8D9101
:105970009C9111979D012E5F3F4F820F931F2091A5
:10598000F8053091F9052817390769F4309729F49B
:105990001092FB051092FA0502C013821282B09396
:1059A000F905A093F805DF91CF91089581E090E08B
:1059B000F8940C94072DFB01DC0104C08D9101903B
:1059C000801921F441505040C8F7881B990B089565
:1059D000FB01DC018D91019080190110D9F3990B25
:1059E0000895FB01DC0101900D920020E1F708957C
:1059F000FB01DC014150504048F001900D92002025
:105A0000C9F701C01D9241505040E0F7089511E0E0
:105A1000C9E2D1E004C0FE010E943D292196CA32AC
:085A2000D107C9F7F894FFCF8C
:105A280028EE732D141602C428AAA63513130240B3
:105A380028AD1D23090000EEFFFFFFFF0000FC0555
:105A480020005E00BC00770100000000C81035107F
:105A58005F10151190106E10821000000000E51103
:105A680035108C018B01000000007501BB0A8C0108
:105A78002403540160086A0800000000E31135108F
:105A88008C018B01000000005A1135108C0159114E
:105A9800AA11C21141110D0A00646174612E747853
:105AA80074004750524D4300474E524D43004750F3
:105AB80047474100474E474741006E616E00696E97
:065AC80066006F76660027
:00000001FF
